{
  "_format": "hh-sol-artifact-1",
  "contractName": "Tracking",
  "sourceName": "contracts/Tracking.sol",
  "abi": [
    {
      "inputs": [],
      "stateMutability": "nonpayable",
      "type": "constructor"
    },
    {
      "anonymous": false,
      "inputs": [
        {
          "indexed": true,
          "internalType": "address",
          "name": "sender",
          "type": "address"
        },
        {
          "indexed": true,
          "internalType": "address",
          "name": "receiver",
          "type": "address"
        },
        {
          "indexed": false,
          "internalType": "uint256",
          "name": "pickupTime",
          "type": "uint256"
        },
        {
          "indexed": false,
          "internalType": "uint256",
          "name": "deliveryTime",
          "type": "uint256"
        },
        {
          "indexed": false,
          "internalType": "uint256",
          "name": "distance",
          "type": "uint256"
        },
        {
          "indexed": false,
          "internalType": "uint256",
          "name": "price",
          "type": "uint256"
        }
      ],
      "name": "ShipmentCreated",
      "type": "event"
    },
    {
      "anonymous": false,
      "inputs": [
        {
          "indexed": true,
          "internalType": "address",
          "name": "sender",
          "type": "address"
        },
        {
          "indexed": true,
          "internalType": "address",
          "name": "receiver",
          "type": "address"
        },
        {
          "indexed": false,
          "internalType": "uint256",
          "name": "deliveryTime",
          "type": "uint256"
        }
      ],
      "name": "ShipmentDelivered",
      "type": "event"
    },
    {
      "anonymous": false,
      "inputs": [
        {
          "indexed": true,
          "internalType": "address",
          "name": "sender",
          "type": "address"
        },
        {
          "indexed": true,
          "internalType": "address",
          "name": "receiver",
          "type": "address"
        },
        {
          "indexed": false,
          "internalType": "uint256",
          "name": "pickupTime",
          "type": "uint256"
        }
      ],
      "name": "ShipmentInTransit",
      "type": "event"
    },
    {
      "anonymous": false,
      "inputs": [
        {
          "indexed": true,
          "internalType": "address",
          "name": "sender",
          "type": "address"
        },
        {
          "indexed": true,
          "internalType": "address",
          "name": "receiver",
          "type": "address"
        },
        {
          "indexed": false,
          "internalType": "uint256",
          "name": "amount",
          "type": "uint256"
        }
      ],
      "name": "ShipmentPaid",
      "type": "event"
    },
    {
      "inputs": [
        {
          "internalType": "address",
          "name": "_sender",
          "type": "address"
        },
        {
          "internalType": "address",
          "name": "_receiver",
          "type": "address"
        },
        {
          "internalType": "uint256",
          "name": "_index",
          "type": "uint256"
        }
      ],
      "name": "completeShipment",
      "outputs": [],
      "stateMutability": "nonpayable",
      "type": "function"
    },
    {
      "inputs": [
        {
          "internalType": "address",
          "name": "_receiver",
          "type": "address"
        },
        {
          "internalType": "uint256",
          "name": "_pickupTime",
          "type": "uint256"
        },
        {
          "internalType": "uint256",
          "name": "_deliveryTime",
          "type": "uint256"
        },
        {
          "internalType": "uint256",
          "name": "_distance",
          "type": "uint256"
        },
        {
          "internalType": "uint256",
          "name": "_price",
          "type": "uint256"
        }
      ],
      "name": "createShipment",
      "outputs": [],
      "stateMutability": "payable",
      "type": "function"
    },
    {
      "inputs": [],
      "name": "getAllShipments",
      "outputs": [
        {
          "components": [
            {
              "internalType": "address",
              "name": "sender",
              "type": "address"
            },
            {
              "internalType": "address",
              "name": "receiver",
              "type": "address"
            },
            {
              "internalType": "uint256",
              "name": "pickupTime",
              "type": "uint256"
            },
            {
              "internalType": "uint256",
              "name": "deliveryTime",
              "type": "uint256"
            },
            {
              "internalType": "uint256",
              "name": "distance",
              "type": "uint256"
            },
            {
              "internalType": "uint256",
              "name": "price",
              "type": "uint256"
            },
            {
              "internalType": "enum Tracking.ShipmentStatus",
              "name": "status",
              "type": "uint8"
            },
            {
              "internalType": "bool",
              "name": "isPaid",
              "type": "bool"
            }
          ],
          "internalType": "struct Tracking.TypeShipment[]",
          "name": "",
          "type": "tuple[]"
        }
      ],
      "stateMutability": "view",
      "type": "function"
    },
    {
      "inputs": [
        {
          "internalType": "address",
          "name": "_sender",
          "type": "address"
        },
        {
          "internalType": "uint256",
          "name": "_index",
          "type": "uint256"
        }
      ],
      "name": "getShipment",
      "outputs": [
        {
          "internalType": "address",
          "name": "",
          "type": "address"
        },
        {
          "internalType": "address",
          "name": "",
          "type": "address"
        },
        {
          "internalType": "uint256",
          "name": "",
          "type": "uint256"
        },
        {
          "internalType": "uint256",
          "name": "",
          "type": "uint256"
        },
        {
          "internalType": "uint256",
          "name": "",
          "type": "uint256"
        },
        {
          "internalType": "uint256",
          "name": "",
          "type": "uint256"
        },
        {
          "internalType": "enum Tracking.ShipmentStatus",
          "name": "",
          "type": "uint8"
        },
        {
          "internalType": "bool",
          "name": "",
          "type": "bool"
        }
      ],
      "stateMutability": "view",
      "type": "function"
    },
    {
      "inputs": [
        {
          "internalType": "address",
          "name": "_sender",
          "type": "address"
        }
      ],
      "name": "getShipmentCount",
      "outputs": [
        {
          "internalType": "uint256",
          "name": "",
          "type": "uint256"
        }
      ],
      "stateMutability": "view",
      "type": "function"
    },
    {
      "inputs": [],
      "name": "shipmentCount",
      "outputs": [
        {
          "internalType": "uint256",
          "name": "",
          "type": "uint256"
        }
      ],
      "stateMutability": "view",
      "type": "function"
    },
    {
      "inputs": [
        {
          "internalType": "address",
          "name": "",
          "type": "address"
        },
        {
          "internalType": "uint256",
          "name": "",
          "type": "uint256"
        }
      ],
      "name": "shipments",
      "outputs": [
        {
          "internalType": "address",
          "name": "sender",
          "type": "address"
        },
        {
          "internalType": "address",
          "name": "receiver",
          "type": "address"
        },
        {
          "internalType": "uint256",
          "name": "pickupTime",
          "type": "uint256"
        },
        {
          "internalType": "uint256",
          "name": "deliveryTime",
          "type": "uint256"
        },
        {
          "internalType": "uint256",
          "name": "distance",
          "type": "uint256"
        },
        {
          "internalType": "uint256",
          "name": "price",
          "type": "uint256"
        },
        {
          "internalType": "enum Tracking.ShipmentStatus",
          "name": "status",
          "type": "uint8"
        },
        {
          "internalType": "bool",
          "name": "isPaid",
          "type": "bool"
        }
      ],
      "stateMutability": "view",
      "type": "function"
    },
    {
      "inputs": [
        {
          "internalType": "address",
          "name": "_sender",
          "type": "address"
        },
        {
          "internalType": "address",
          "name": "_receiver",
          "type": "address"
        },
        {
          "internalType": "uint256",
          "name": "_index",
          "type": "uint256"
        }
      ],
      "name": "startShipment",
      "outputs": [],
      "stateMutability": "nonpayable",
      "type": "function"
    }
  ],
  "bytecode": "0x608060405234801561001057600080fd5b506000600181905550611c8d806100286000396000f3fe60806040526004361061007b5760003560e01c80638365da541161004e5780638365da5414610141578063a25cef7b14610185578063aace20b7146101a1578063b7dfd93d146101cc5761007b565b8063179a878c14610080578063494dad6c146100a95780635667e02f146100d45780637ff5265d14610118575b600080fd5b34801561008c57600080fd5b506100a760048036038101906100a2919061149d565b610209565b005b3480156100b557600080fd5b506100be6106c1565b6040516100cb9190611963565b60405180910390f35b3480156100e057600080fd5b506100fb60048036038101906100f691906114ec565b610897565b60405161010f9897969594939291906118e5565b60405180910390f35b34801561012457600080fd5b5061013f600480360381019061013a919061149d565b610956565b005b34801561014d57600080fd5b50610168600480360381019061016391906114ec565b610c96565b60405161017c9897969594939291906118e5565b60405180910390f35b61019f600480360381019061019a9190611528565b610ef2565b005b3480156101ad57600080fd5b506101b66113f9565b6040516101c39190611a45565b60405180910390f35b3480156101d857600080fd5b506101f360048036038101906101ee9190611474565b6113ff565b6040516102009190611a45565b60405180910390f35b60008060008573ffffffffffffffffffffffffffffffffffffffff1673ffffffffffffffffffffffffffffffffffffffff1681526020019081526020016000208281548110610281577f4e487b7100000000000000000000000000000000000000000000000000000000600052603260045260246000fd5b906000526020600020906007020190506000600283815481106102cd577f4e487b7100000000000000000000000000000000000000000000000000000000600052603260045260246000fd5b906000526020600020906007020190508373ffffffffffffffffffffffffffffffffffffffff168260010160009054906101000a900473ffffffffffffffffffffffffffffffffffffffff1673ffffffffffffffffffffffffffffffffffffffff161461036f576040517f08c379a000000000000000000000000000000000000000000000000000000000815260040161036690611a25565b60405180910390fd5b600160028111156103a9577f4e487b7100000000000000000000000000000000000000000000000000000000600052602160045260246000fd5b8260060160009054906101000a900460ff1660028111156103f3577f4e487b7100000000000000000000000000000000000000000000000000000000600052602160045260246000fd5b14610433576040517f08c379a000000000000000000000000000000000000000000000000000000000815260040161042a906119c5565b60405180910390fd5b8160060160019054906101000a900460ff1615610485576040517f08c379a000000000000000000000000000000000000000000000000000000000815260040161047c906119a5565b60405180910390fd5b60028260060160006101000a81548160ff021916908360028111156104d3577f4e487b7100000000000000000000000000000000000000000000000000000000600052602160045260246000fd5b021790555042826003018190555060028160060160006101000a81548160ff0219169083600281111561052f577f4e487b7100000000000000000000000000000000000000000000000000000000600052602160045260246000fd5b02179055504281600301819055506000826005015490508260000160009054906101000a900473ffffffffffffffffffffffffffffffffffffffff1673ffffffffffffffffffffffffffffffffffffffff166108fc829081150290604051600060405180830381858888f193505050501580156105b0573d6000803e3d6000fd5b5060018360060160016101000a81548160ff02191690831515021790555060018260060160016101000a81548160ff0219169083151502179055508473ffffffffffffffffffffffffffffffffffffffff168673ffffffffffffffffffffffffffffffffffffffff167f3746ccceb54f44c9b0ee0120e596168d07ec9f6ca303cfdd9810d3b2e2686a2e856003015460405161064c9190611a45565b60405180910390a38473ffffffffffffffffffffffffffffffffffffffff168673ffffffffffffffffffffffffffffffffffffffff167f2b6f2473aebafaf8d0889669490135928ec4454d2e29a103fd39693bbca6aef1836040516106b19190611a45565b60405180910390a3505050505050565b60606002805480602002602001604051908101604052809291908181526020016000905b8282101561088e5783829060005260206000209060070201604051806101000160405290816000820160009054906101000a900473ffffffffffffffffffffffffffffffffffffffff1673ffffffffffffffffffffffffffffffffffffffff1673ffffffffffffffffffffffffffffffffffffffff1681526020016001820160009054906101000a900473ffffffffffffffffffffffffffffffffffffffff1673ffffffffffffffffffffffffffffffffffffffff1673ffffffffffffffffffffffffffffffffffffffff168152602001600282015481526020016003820154815260200160048201548152602001600582015481526020016006820160009054906101000a900460ff166002811115610828577f4e487b7100000000000000000000000000000000000000000000000000000000600052602160045260246000fd5b6002811115610860577f4e487b7100000000000000000000000000000000000000000000000000000000600052602160045260246000fd5b81526020016006820160019054906101000a900460ff161515151581525050815260200190600101906106e5565b50505050905090565b600060205281600052604060002081815481106108b357600080fd5b9060005260206000209060070201600091509150508060000160009054906101000a900473ffffffffffffffffffffffffffffffffffffffff16908060010160009054906101000a900473ffffffffffffffffffffffffffffffffffffffff16908060020154908060030154908060040154908060050154908060060160009054906101000a900460ff16908060060160019054906101000a900460ff16905088565b60008060008573ffffffffffffffffffffffffffffffffffffffff1673ffffffffffffffffffffffffffffffffffffffff16815260200190815260200160002082815481106109ce577f4e487b7100000000000000000000000000000000000000000000000000000000600052603260045260246000fd5b90600052602060002090600702019050600060028381548110610a1a577f4e487b7100000000000000000000000000000000000000000000000000000000600052603260045260246000fd5b906000526020600020906007020190508373ffffffffffffffffffffffffffffffffffffffff168260010160009054906101000a900473ffffffffffffffffffffffffffffffffffffffff1673ffffffffffffffffffffffffffffffffffffffff1614610abc576040517f08c379a0000000000000000000000000000000000000000000000000000000008152600401610ab390611985565b60405180910390fd5b60006002811115610af6577f4e487b7100000000000000000000000000000000000000000000000000000000600052602160045260246000fd5b8260060160009054906101000a900460ff166002811115610b40577f4e487b7100000000000000000000000000000000000000000000000000000000600052602160045260246000fd5b14610b80576040517f08c379a0000000000000000000000000000000000000000000000000000000008152600401610b7790611a05565b60405180910390fd5b60018260060160006101000a81548160ff02191690836002811115610bce577f4e487b7100000000000000000000000000000000000000000000000000000000600052602160045260246000fd5b021790555060018160060160006101000a81548160ff02191690836002811115610c21577f4e487b7100000000000000000000000000000000000000000000000000000000600052602160045260246000fd5b02179055508373ffffffffffffffffffffffffffffffffffffffff168573ffffffffffffffffffffffffffffffffffffffff167faafab9f94340179ff9cefd29621e1772a4b8efab8023163838f1b0a8f6ce5df58460020154604051610c879190611a45565b60405180910390a35050505050565b60008060008060008060008060008060008c73ffffffffffffffffffffffffffffffffffffffff1673ffffffffffffffffffffffffffffffffffffffff1681526020019081526020016000208a81548110610d1a577f4e487b7100000000000000000000000000000000000000000000000000000000600052603260045260246000fd5b9060005260206000209060070201604051806101000160405290816000820160009054906101000a900473ffffffffffffffffffffffffffffffffffffffff1673ffffffffffffffffffffffffffffffffffffffff1673ffffffffffffffffffffffffffffffffffffffff1681526020016001820160009054906101000a900473ffffffffffffffffffffffffffffffffffffffff1673ffffffffffffffffffffffffffffffffffffffff1673ffffffffffffffffffffffffffffffffffffffff168152602001600282015481526020016003820154815260200160048201548152602001600582015481526020016006820160009054906101000a900460ff166002811115610e53577f4e487b7100000000000000000000000000000000000000000000000000000000600052602160045260246000fd5b6002811115610e8b577f4e487b7100000000000000000000000000000000000000000000000000000000600052602160045260246000fd5b81526020016006820160019054906101000a900460ff1615151515815250509050806000015181602001518260400151836060015184608001518560a001518660c001518760e0015198509850985098509850985098509850509295985092959890939650565b803414610f34576040517f08c379a0000000000000000000000000000000000000000000000000000000008152600401610f2b906119e5565b60405180910390fd5b60006040518061010001604052803373ffffffffffffffffffffffffffffffffffffffff1681526020018773ffffffffffffffffffffffffffffffffffffffff1681526020018681526020016000815260200184815260200183815260200160006002811115610fcd577f4e487b7100000000000000000000000000000000000000000000000000000000600052602160045260246000fd5b81526020016000151581525090506000803373ffffffffffffffffffffffffffffffffffffffff1673ffffffffffffffffffffffffffffffffffffffff16815260200190815260200160002081908060018154018082558091505060019003906000526020600020906007020160009091909190915060008201518160000160006101000a81548173ffffffffffffffffffffffffffffffffffffffff021916908373ffffffffffffffffffffffffffffffffffffffff16021790555060208201518160010160006101000a81548173ffffffffffffffffffffffffffffffffffffffff021916908373ffffffffffffffffffffffffffffffffffffffff16021790555060408201518160020155606082015181600301556080820151816004015560a0820151816005015560c08201518160060160006101000a81548160ff0219169083600281111561114a577f4e487b7100000000000000000000000000000000000000000000000000000000600052602160045260246000fd5b021790555060e08201518160060160016101000a81548160ff02191690831515021790555050506001600081548092919061118490611b6e565b919050555060026040518061010001604052803373ffffffffffffffffffffffffffffffffffffffff1681526020018873ffffffffffffffffffffffffffffffffffffffff1681526020018781526020016000815260200185815260200184815260200160006002811115611222577f4e487b7100000000000000000000000000000000000000000000000000000000600052602160045260246000fd5b815260200160001515815250908060018154018082558091505060019003906000526020600020906007020160009091909190915060008201518160000160006101000a81548173ffffffffffffffffffffffffffffffffffffffff021916908373ffffffffffffffffffffffffffffffffffffffff16021790555060208201518160010160006101000a81548173ffffffffffffffffffffffffffffffffffffffff021916908373ffffffffffffffffffffffffffffffffffffffff16021790555060408201518160020155606082015181600301556080820151816004015560a0820151816005015560c08201518160060160006101000a81548160ff0219169083600281111561135e577f4e487b7100000000000000000000000000000000000000000000000000000000600052602160045260246000fd5b021790555060e08201518160060160016101000a81548160ff02191690831515021790555050508573ffffffffffffffffffffffffffffffffffffffff163373ffffffffffffffffffffffffffffffffffffffff167f2947526c14d41e26bf003d7ef7432e8c1448e669cef3671dc4d1230c541be64387600087876040516113e99493929190611a60565b60405180910390a3505050505050565b60015481565b60008060008373ffffffffffffffffffffffffffffffffffffffff1673ffffffffffffffffffffffffffffffffffffffff168152602001908152602001600020805490509050919050565b60008135905061145981611c29565b92915050565b60008135905061146e81611c40565b92915050565b60006020828403121561148657600080fd5b60006114948482850161144a565b91505092915050565b6000806000606084860312156114b257600080fd5b60006114c08682870161144a565b93505060206114d18682870161144a565b92505060406114e28682870161145f565b9150509250925092565b600080604083850312156114ff57600080fd5b600061150d8582860161144a565b925050602061151e8582860161145f565b9150509250929050565b600080600080600060a0868803121561154057600080fd5b600061154e8882890161144a565b955050602061155f8882890161145f565b94505060406115708882890161145f565b93505060606115818882890161145f565b92505060806115928882890161145f565b9150509295509295909350565b60006115ab8383611825565b6101008301905092915050565b6115c181611aef565b82525050565b6115d081611aef565b82525050565b60006115e182611ab5565b6115eb8185611acd565b93506115f683611aa5565b8060005b8381101561162757815161160e888261159f565b975061161983611ac0565b9250506001810190506115fa565b5085935050505092915050565b61163d81611b01565b82525050565b61164c81611b01565b82525050565b61165b81611b4a565b82525050565b61166a81611b4a565b82525050565b61167981611b5c565b82525050565b600061168c601183611ade565b91507f496e76616c696420726573706f6e73652e0000000000000000000000000000006000830152602082019050919050565b60006116cc601983611ade565b91507f536869706d656e7420697320616c726561647920706169642e000000000000006000830152602082019050919050565b600061170c601b83611ade565b91507f536869706d656e74206973206e6f7420696e207472616e7369742e00000000006000830152602082019050919050565b600061174c603e83611ade565b91507f496e636f7272656374207061796d656e7420616d6f756e742e205061796d656e60008301527f7420616d6f756e74206d757374206d61746368207468652070726963652e00006020830152604082019050919050565b60006117b2601883611ade565b91507f536869706d656e74206973206e6f742070656e64696e672e00000000000000006000830152602082019050919050565b60006117f2601183611ade565b91507f496e76616c69642072656365697665722e0000000000000000000000000000006000830152602082019050919050565b6101008201600082015161183c60008501826115b8565b50602082015161184f60208501826115b8565b50604082015161186260408501826118c7565b50606082015161187560608501826118c7565b50608082015161188860808501826118c7565b5060a082015161189b60a08501826118c7565b5060c08201516118ae60c0850182611652565b5060e08201516118c160e0850182611634565b50505050565b6118d081611b40565b82525050565b6118df81611b40565b82525050565b6000610100820190506118fb600083018b6115c7565b611908602083018a6115c7565b61191560408301896118d6565b61192260608301886118d6565b61192f60808301876118d6565b61193c60a08301866118d6565b61194960c0830185611661565b61195660e0830184611643565b9998505050505050505050565b6000602082019050818103600083015261197d81846115d6565b905092915050565b6000602082019050818103600083015261199e8161167f565b9050919050565b600060208201905081810360008301526119be816116bf565b9050919050565b600060208201905081810360008301526119de816116ff565b9050919050565b600060208201905081810360008301526119fe8161173f565b9050919050565b60006020820190508181036000830152611a1e816117a5565b9050919050565b60006020820190508181036000830152611a3e816117e5565b9050919050565b6000602082019050611a5a60008301846118d6565b92915050565b6000608082019050611a7560008301876118d6565b611a826020830186611670565b611a8f60408301856118d6565b611a9c60608301846118d6565b95945050505050565b6000819050602082019050919050565b600081519050919050565b6000602082019050919050565b600082825260208201905092915050565b600082825260208201905092915050565b6000611afa82611b20565b9050919050565b60008115159050919050565b6000819050611b1b82611c15565b919050565b600073ffffffffffffffffffffffffffffffffffffffff82169050919050565b6000819050919050565b6000611b5582611b0d565b9050919050565b6000611b6782611b40565b9050919050565b6000611b7982611b40565b91507fffffffffffffffffffffffffffffffffffffffffffffffffffffffffffffffff821415611bac57611bab611bb7565b5b600182019050919050565b7f4e487b7100000000000000000000000000000000000000000000000000000000600052601160045260246000fd5b7f4e487b7100000000000000000000000000000000000000000000000000000000600052602160045260246000fd5b60038110611c2657611c25611be6565b5b50565b611c3281611aef565b8114611c3d57600080fd5b50565b611c4981611b40565b8114611c5457600080fd5b5056fea2646970667358221220e4057d51c8c6a807a908255f01471a29a1d952de8b39a3b81728e0976735e2a064736f6c63430008000033",
  "linkReferences": {},
  "deployedLinkReferences": {}
}